{
  "address": "0x36f63F22bf69Bccec3055eaFBa9D3A354B99b1dD",
  "abi": [
    {
      "inputs": [
        {
          "internalType": "contract IERC721",
          "name": "_l1Token",
          "type": "address"
        },
        {
          "internalType": "contract DeBridgeGateMock",
          "name": "_l1DeBridgeGate",
          "type": "address"
        },
        {
          "internalType": "contract IERC721",
          "name": "_l2Token",
          "type": "address"
        },
        {
          "internalType": "address",
          "name": "_l2bridge",
          "type": "address"
        }
      ],
      "stateMutability": "nonpayable",
      "type": "constructor"
    },
    {
      "anonymous": false,
      "inputs": [
        {
          "indexed": true,
          "internalType": "address",
          "name": "l1Token",
          "type": "address"
        },
        {
          "indexed": true,
          "internalType": "address",
          "name": "_from",
          "type": "address"
        },
        {
          "indexed": true,
          "internalType": "address",
          "name": "_to",
          "type": "address"
        },
        {
          "indexed": false,
          "internalType": "uint256",
          "name": "_amount",
          "type": "uint256"
        }
      ],
      "name": "DepositInitiated",
      "type": "event"
    },
    {
      "anonymous": false,
      "inputs": [
        {
          "indexed": true,
          "internalType": "bytes32",
          "name": "role",
          "type": "bytes32"
        },
        {
          "indexed": true,
          "internalType": "bytes32",
          "name": "previousAdminRole",
          "type": "bytes32"
        },
        {
          "indexed": true,
          "internalType": "bytes32",
          "name": "newAdminRole",
          "type": "bytes32"
        }
      ],
      "name": "RoleAdminChanged",
      "type": "event"
    },
    {
      "anonymous": false,
      "inputs": [
        {
          "indexed": true,
          "internalType": "bytes32",
          "name": "role",
          "type": "bytes32"
        },
        {
          "indexed": true,
          "internalType": "address",
          "name": "account",
          "type": "address"
        },
        {
          "indexed": true,
          "internalType": "address",
          "name": "sender",
          "type": "address"
        }
      ],
      "name": "RoleGranted",
      "type": "event"
    },
    {
      "anonymous": false,
      "inputs": [
        {
          "indexed": true,
          "internalType": "bytes32",
          "name": "role",
          "type": "bytes32"
        },
        {
          "indexed": true,
          "internalType": "address",
          "name": "account",
          "type": "address"
        },
        {
          "indexed": true,
          "internalType": "address",
          "name": "sender",
          "type": "address"
        }
      ],
      "name": "RoleRevoked",
      "type": "event"
    },
    {
      "anonymous": false,
      "inputs": [
        {
          "indexed": true,
          "internalType": "address",
          "name": "l1Token",
          "type": "address"
        },
        {
          "indexed": true,
          "internalType": "string",
          "name": "_l2Tx",
          "type": "string"
        },
        {
          "indexed": true,
          "internalType": "address",
          "name": "_to",
          "type": "address"
        },
        {
          "indexed": false,
          "internalType": "uint256",
          "name": "_amount",
          "type": "uint256"
        }
      ],
      "name": "WithdrawalFinalized",
      "type": "event"
    },
    {
      "inputs": [],
      "name": "DEFAULT_ADMIN_ROLE",
      "outputs": [
        {
          "internalType": "bytes32",
          "name": "",
          "type": "bytes32"
        }
      ],
      "stateMutability": "view",
      "type": "function"
    },
    {
      "inputs": [],
      "name": "ORACLE_ROLE",
      "outputs": [
        {
          "internalType": "bytes32",
          "name": "",
          "type": "bytes32"
        }
      ],
      "stateMutability": "view",
      "type": "function"
    },
    {
      "inputs": [],
      "name": "autoParams",
      "outputs": [
        {
          "internalType": "bytes",
          "name": "",
          "type": "bytes"
        }
      ],
      "stateMutability": "view",
      "type": "function"
    },
    {
      "inputs": [
        {
          "internalType": "address",
          "name": "_to",
          "type": "address"
        },
        {
          "internalType": "string",
          "name": "_l2Tx",
          "type": "string"
        },
        {
          "internalType": "uint256",
          "name": "_id",
          "type": "uint256"
        }
      ],
      "name": "finalizeInboundTransfer",
      "outputs": [],
      "stateMutability": "nonpayable",
      "type": "function"
    },
    {
      "inputs": [
        {
          "internalType": "bytes32",
          "name": "role",
          "type": "bytes32"
        }
      ],
      "name": "getRoleAdmin",
      "outputs": [
        {
          "internalType": "bytes32",
          "name": "",
          "type": "bytes32"
        }
      ],
      "stateMutability": "view",
      "type": "function"
    },
    {
      "inputs": [
        {
          "internalType": "bytes32",
          "name": "role",
          "type": "bytes32"
        },
        {
          "internalType": "address",
          "name": "account",
          "type": "address"
        }
      ],
      "name": "grantRole",
      "outputs": [],
      "stateMutability": "nonpayable",
      "type": "function"
    },
    {
      "inputs": [
        {
          "internalType": "bytes32",
          "name": "role",
          "type": "bytes32"
        },
        {
          "internalType": "address",
          "name": "account",
          "type": "address"
        }
      ],
      "name": "hasRole",
      "outputs": [
        {
          "internalType": "bool",
          "name": "",
          "type": "bool"
        }
      ],
      "stateMutability": "view",
      "type": "function"
    },
    {
      "inputs": [],
      "name": "l1DeBridgeGate",
      "outputs": [
        {
          "internalType": "contract DeBridgeGateMock",
          "name": "",
          "type": "address"
        }
      ],
      "stateMutability": "view",
      "type": "function"
    },
    {
      "inputs": [],
      "name": "l1Token",
      "outputs": [
        {
          "internalType": "contract IERC721",
          "name": "",
          "type": "address"
        }
      ],
      "stateMutability": "view",
      "type": "function"
    },
    {
      "inputs": [],
      "name": "l2Token",
      "outputs": [
        {
          "internalType": "contract IERC721",
          "name": "",
          "type": "address"
        }
      ],
      "stateMutability": "view",
      "type": "function"
    },
    {
      "inputs": [],
      "name": "l2bridge",
      "outputs": [
        {
          "internalType": "address",
          "name": "",
          "type": "address"
        }
      ],
      "stateMutability": "view",
      "type": "function"
    },
    {
      "inputs": [
        {
          "internalType": "address",
          "name": "_to",
          "type": "address"
        },
        {
          "internalType": "uint256",
          "name": "_id",
          "type": "uint256"
        }
      ],
      "name": "outboundTransfer",
      "outputs": [],
      "stateMutability": "payable",
      "type": "function"
    },
    {
      "inputs": [
        {
          "internalType": "bytes32",
          "name": "role",
          "type": "bytes32"
        },
        {
          "internalType": "address",
          "name": "account",
          "type": "address"
        }
      ],
      "name": "renounceRole",
      "outputs": [],
      "stateMutability": "nonpayable",
      "type": "function"
    },
    {
      "inputs": [
        {
          "internalType": "bytes32",
          "name": "role",
          "type": "bytes32"
        },
        {
          "internalType": "address",
          "name": "account",
          "type": "address"
        }
      ],
      "name": "revokeRole",
      "outputs": [],
      "stateMutability": "nonpayable",
      "type": "function"
    },
    {
      "inputs": [
        {
          "internalType": "bytes",
          "name": "_autoParams",
          "type": "bytes"
        }
      ],
      "name": "setAutoParams",
      "outputs": [],
      "stateMutability": "nonpayable",
      "type": "function"
    },
    {
      "inputs": [
        {
          "internalType": "bytes4",
          "name": "interfaceId",
          "type": "bytes4"
        }
      ],
      "name": "supportsInterface",
      "outputs": [
        {
          "internalType": "bool",
          "name": "",
          "type": "bool"
        }
      ],
      "stateMutability": "view",
      "type": "function"
    }
  ],
  "transactionHash": "0xdf89dc2ccca863aeaf61046507f6a0cc65b2bb26e130b95e82a24b45a475498c",
  "args": [
    "0x55904F2C4B672103a4E04E6BFcb1c5DDC4f41D6F",
    "0x68D936Cb4723BdD38C488FD50514803f96789d2D",
    "0x31649ac584eBcBfD465b49304eB27574B2111F0B",
    "0x31649ac584eBcBfD465b49304eB27574B2111F0B"
  ],
  "solcInputHash": "069bbb4dd0e9554e7d74faa56f231555",
  "bytecode": "0x60806040523480156200001157600080fd5b50604051620012c0380380620012c08339810160408190526200003491620001ec565b6001600160a01b0384166200007d5760405162461bcd60e51b815260206004820152600a6024820152692d22a927afaa27a5a2a760b11b60448201526064015b60405180910390fd5b6001600160a01b038216620000c25760405162461bcd60e51b815260206004820152600a6024820152692d22a927afaa27a5a2a760b11b604482015260640162000074565b600180546001600160a01b038087166001600160a01b031992831617909255600280548684169083161790556004805485841690831617905560038054928416929091169190911790556200011960003362000123565b5050505062000254565b6200012f828262000133565b5050565b6000828152602081815260408083206001600160a01b038516845290915290205460ff166200012f576000828152602081815260408083206001600160a01b03851684529091529020805460ff191660011790556200018f3390565b6001600160a01b0316816001600160a01b0316837f2f8788117e7eff1d82e926ec794901d17c78024a50270940304540a733656f0d60405160405180910390a45050565b6001600160a01b0381168114620001e957600080fd5b50565b600080600080608085870312156200020357600080fd5b84516200021081620001d3565b60208601519094506200022381620001d3565b60408601519093506200023681620001d3565b60608601519092506200024981620001d3565b939692955090935050565b61105c80620002646000396000f3fe6080604052600436106100f35760003560e01c8063a217fddf1161008a578063d547741f11610059578063d547741f146102c3578063d72ce90e146102e3578063f4cb801914610303578063f61b2dca1461032357600080fd5b8063a217fddf1461024c578063c01e1bd614610261578063c71e5b3d14610281578063cd4f3b08146102a357600080fd5b806336568abe116100c657806336568abe146101c157806356eff267146101e15780638ba9c8281461021957806391d148541461022c57600080fd5b806301ffc9a7146100f857806307e2cea51461012d578063248a9ca31461016f5780632f2ff15d1461019f575b600080fd5b34801561010457600080fd5b50610118610113366004610b5e565b610343565b60405190151581526020015b60405180910390f35b34801561013957600080fd5b506101617f68e79a7bf1e0bc45d0a330c573bc367f9cf464fd326078812f301165fbda4ef181565b604051908152602001610124565b34801561017b57600080fd5b5061016161018a366004610b88565b60009081526020819052604090206001015490565b3480156101ab57600080fd5b506101bf6101ba366004610bbd565b61037a565b005b3480156101cd57600080fd5b506101bf6101dc366004610bbd565b6103a5565b3480156101ed57600080fd5b50600454610201906001600160a01b031681565b6040516001600160a01b039091168152602001610124565b6101bf610227366004610be9565b610428565b34801561023857600080fd5b50610118610247366004610bbd565b6105a9565b34801561025857600080fd5b50610161600081565b34801561026d57600080fd5b50600154610201906001600160a01b031681565b34801561028d57600080fd5b506102966105d2565b6040516101249190610c6f565b3480156102af57600080fd5b50600354610201906001600160a01b031681565b3480156102cf57600080fd5b506101bf6102de366004610bbd565b610660565b3480156102ef57600080fd5b506101bf6102fe366004610c98565b610686565b34801561030f57600080fd5b50600254610201906001600160a01b031681565b34801561032f57600080fd5b506101bf61033e366004610d63565b6107c9565b60006001600160e01b03198216637965db0b60e01b148061037457506301ffc9a760e01b6001600160e01b03198316145b92915050565b60008281526020819052604090206001015461039681336107d5565b6103a08383610839565b505050565b6001600160a01b038116331461041a5760405162461bcd60e51b815260206004820152602f60248201527f416363657373436f6e74726f6c3a2063616e206f6e6c792072656e6f756e636560448201526e103937b632b9903337b91039b2b63360891b60648201526084015b60405180910390fd5b61042482826108bd565b5050565b6001546040516323b872dd60e01b8152336004820152306024820152604481018390526001600160a01b03909116906323b872dd90606401600060405180830381600087803b15801561047a57600080fd5b505af115801561048e573d6000803e3d6000fd5b50506040805160208082018352600080835260025460035494516061975093955090936001600160a01b039182169363be29747693869334938a936104f09391909216910160609190911b6bffffffffffffffffffffffff1916815260140190565b6040516020818303038152906040528760008860056040518963ffffffff1660e01b8152600401610528989796959493929190610e10565b600060405180830381600087803b15801561054257600080fd5b505af1158015610556573d6000803e3d6000fd5b50506001546040518781526001600160a01b038981169450339350909116907f7abe8fd2d210cf1e5d2cb3e277afd776d77269c8869b02c39f0bb542de0fdba19060200160405180910390a45050505050565b6000918252602082815260408084206001600160a01b0393909316845291905290205460ff1690565b600580546105df90610dd5565b80601f016020809104026020016040519081016040528092919081815260200182805461060b90610dd5565b80156106585780601f1061062d57610100808354040283529160200191610658565b820191906000526020600020905b81548152906001019060200180831161063b57829003601f168201915b505050505081565b60008281526020819052604090206001015461067c81336107d5565b6103a083836108bd565b7f68e79a7bf1e0bc45d0a330c573bc367f9cf464fd326078812f301165fbda4ef16106b181336107d5565b6001600160a01b0384166106f55760405162461bcd60e51b815260206004820152600b60248201526a2727afa922a1a2a4ab22a960a91b6044820152606401610411565b6001546040516323b872dd60e01b81523060048201526001600160a01b03868116602483015260448201859052909116906323b872dd90606401600060405180830381600087803b15801561074957600080fd5b505af115801561075d573d6000803e3d6000fd5b50505050836001600160a01b0316836040516107799190610f1b565b60405190819003812060015485835290916001600160a01b03909116907f67d675f6468b292e45b4a99685f1e56065b470c5f643ad48ed535d6fee7c65e79060200160405180910390a450505050565b6103a060058383610ac5565b6107df82826105a9565b610424576107f7816001600160a01b03166014610922565b610802836020610922565b604051602001610813929190610f37565b60408051601f198184030181529082905262461bcd60e51b825261041191600401610c6f565b61084382826105a9565b610424576000828152602081815260408083206001600160a01b03851684529091529020805460ff191660011790556108793390565b6001600160a01b0316816001600160a01b0316837f2f8788117e7eff1d82e926ec794901d17c78024a50270940304540a733656f0d60405160405180910390a45050565b6108c782826105a9565b15610424576000828152602081815260408083206001600160a01b0385168085529252808320805460ff1916905551339285917ff6391f5c32d9c69d2a47ea670b442974b53935d1edc7fd64eb21e047a839171b9190a45050565b60606000610931836002610fc2565b61093c906002610fe1565b67ffffffffffffffff81111561095457610954610c82565b6040519080825280601f01601f19166020018201604052801561097e576020820181803683370190505b509050600360fc1b8160008151811061099957610999610ff9565b60200101906001600160f81b031916908160001a905350600f60fb1b816001815181106109c8576109c8610ff9565b60200101906001600160f81b031916908160001a90535060006109ec846002610fc2565b6109f7906001610fe1565b90505b6001811115610a6f576f181899199a1a9b1b9c1cb0b131b232b360811b85600f1660108110610a2b57610a2b610ff9565b1a60f81b828281518110610a4157610a41610ff9565b60200101906001600160f81b031916908160001a90535060049490941c93610a688161100f565b90506109fa565b508315610abe5760405162461bcd60e51b815260206004820181905260248201527f537472696e67733a20686578206c656e67746820696e73756666696369656e746044820152606401610411565b9392505050565b828054610ad190610dd5565b90600052602060002090601f016020900481019282610af35760008555610b39565b82601f10610b0c5782800160ff19823516178555610b39565b82800160010185558215610b39579182015b82811115610b39578235825591602001919060010190610b1e565b50610b45929150610b49565b5090565b5b80821115610b455760008155600101610b4a565b600060208284031215610b7057600080fd5b81356001600160e01b031981168114610abe57600080fd5b600060208284031215610b9a57600080fd5b5035919050565b80356001600160a01b0381168114610bb857600080fd5b919050565b60008060408385031215610bd057600080fd5b82359150610be060208401610ba1565b90509250929050565b60008060408385031215610bfc57600080fd5b610c0583610ba1565b946020939093013593505050565b60005b83811015610c2e578181015183820152602001610c16565b83811115610c3d576000848401525b50505050565b60008151808452610c5b816020860160208601610c13565b601f01601f19169290920160200192915050565b602081526000610abe6020830184610c43565b634e487b7160e01b600052604160045260246000fd5b600080600060608486031215610cad57600080fd5b610cb684610ba1565b9250602084013567ffffffffffffffff80821115610cd357600080fd5b818601915086601f830112610ce757600080fd5b813581811115610cf957610cf9610c82565b604051601f8201601f19908116603f01168101908382118183101715610d2157610d21610c82565b81604052828152896020848701011115610d3a57600080fd5b826020860160208301376000602084830101528096505050505050604084013590509250925092565b60008060208385031215610d7657600080fd5b823567ffffffffffffffff80821115610d8e57600080fd5b818501915085601f830112610da257600080fd5b813581811115610db157600080fd5b866020828501011115610dc357600080fd5b60209290920196919550909350505050565b600181811c90821680610de957607f821691505b60208210811415610e0a57634e487b7160e01b600052602260045260246000fd5b50919050565b600061010060018060a01b038b16835260208a81850152896040850152816060850152610e3f8285018a610c43565b91508382036080850152610e538289610c43565b915086151560a085015263ffffffff861660c085015283820360e08501526000855481600182811c915080831680610e8c57607f831692505b858310811415610eaa57634e487b7160e01b85526022600452602485fd5b828752602087019650808015610ec75760018114610ed857610f03565b60ff19851688528688019550610f03565b60008b81526020902060005b85811015610efd5781548a820152908401908801610ee4565b89019650505b50505050508093505050509998505050505050505050565b60008251610f2d818460208701610c13565b9190910192915050565b7f416363657373436f6e74726f6c3a206163636f756e7420000000000000000000815260008351610f6f816017850160208801610c13565b7001034b99036b4b9b9b4b733903937b6329607d1b6017918401918201528351610fa0816028840160208801610c13565b01602801949350505050565b634e487b7160e01b600052601160045260246000fd5b6000816000190483118215151615610fdc57610fdc610fac565b500290565b60008219821115610ff457610ff4610fac565b500190565b634e487b7160e01b600052603260045260246000fd5b60008161101e5761101e610fac565b50600019019056fea2646970667358221220cd01cc68d3c9cf75e53bed20cb61146eed326ca6914b7c07a5a96cfb4d05a16a64736f6c63430008090033",
  "devdoc": {
    "author": "OnBridge IO*",
    "details": "This contract gets deployed on main network and receives and locks tokens to bridge them on L2 - upon `finalizeInboundTransfer` called by oracle, and releases corresponding amount of tokens back to holder - upon `outboundTransfer` called by token holder to deposit token to L2",
    "kind": "dev",
    "methods": {
      "finalizeInboundTransfer(address,string,uint256)": {
        "params": {
          "_id": "Token id being withdrawn",
          "_l2Tx": "Tx hash of `L2Bridge.outboundTransfer` on L2 side",
          "_to": "L1 address of destination"
        }
      },
      "getRoleAdmin(bytes32)": {
        "details": "Returns the admin role that controls `role`. See {grantRole} and {revokeRole}. To change a role's admin, use {_setRoleAdmin}."
      },
      "grantRole(bytes32,address)": {
        "details": "Grants `role` to `account`. If `account` had not been already granted `role`, emits a {RoleGranted} event. Requirements: - the caller must have ``role``'s admin role."
      },
      "hasRole(bytes32,address)": {
        "details": "Returns `true` if `account` has been granted `role`."
      },
      "outboundTransfer(address,uint256)": {
        "params": {
          "_id": "Token id that will be bridged",
          "_to": "L2 address of destination"
        }
      },
      "renounceRole(bytes32,address)": {
        "details": "Revokes `role` from the calling account. Roles are often managed via {grantRole} and {revokeRole}: this function's purpose is to provide a mechanism for accounts to lose their privileges if they are compromised (such as when a trusted device is misplaced). If the calling account had been granted `role`, emits a {RoleRevoked} event. Requirements: - the caller must be `account`."
      },
      "revokeRole(bytes32,address)": {
        "details": "Revokes `role` from `account`. If `account` had been granted `role`, emits a {RoleRevoked} event. Requirements: - the caller must have ``role``'s admin role."
      },
      "supportsInterface(bytes4)": {
        "details": "See {IERC165-supportsInterface}."
      }
    },
    "title": "Bridge Layer 1 contract",
    "version": 1
  },
  "userdoc": {
    "kind": "user",
    "methods": {
      "finalizeInboundTransfer(address,string,uint256)": {
        "notice": "Finalizes withdrawal initiated on L2. callable only by ORACLE_ROLE"
      },
      "outboundTransfer(address,uint256)": {
        "notice": "Initiates a deposit from L1 to L2; callable by any tokenholder. The token should be approved by the holder"
      }
    },
    "version": 1
  },
  "storageLayout": {
    "storage": [
      {
        "astId": 24,
        "contract": "contracts/L1Bridge.sol:L1Bridge",
        "label": "_roles",
        "offset": 0,
        "slot": "0",
        "type": "t_mapping(t_bytes32,t_struct(RoleData)19_storage)"
      },
      {
        "astId": 2294,
        "contract": "contracts/L1Bridge.sol:L1Bridge",
        "label": "l1Token",
        "offset": 0,
        "slot": "1",
        "type": "t_contract(IERC721)1311"
      },
      {
        "astId": 2297,
        "contract": "contracts/L1Bridge.sol:L1Bridge",
        "label": "l1DeBridgeGate",
        "offset": 0,
        "slot": "2",
        "type": "t_contract(DeBridgeGateMock)3049"
      },
      {
        "astId": 2299,
        "contract": "contracts/L1Bridge.sol:L1Bridge",
        "label": "l2bridge",
        "offset": 0,
        "slot": "3",
        "type": "t_address"
      },
      {
        "astId": 2302,
        "contract": "contracts/L1Bridge.sol:L1Bridge",
        "label": "l2Token",
        "offset": 0,
        "slot": "4",
        "type": "t_contract(IERC721)1311"
      },
      {
        "astId": 2309,
        "contract": "contracts/L1Bridge.sol:L1Bridge",
        "label": "autoParams",
        "offset": 0,
        "slot": "5",
        "type": "t_bytes_storage"
      }
    ],
    "types": {
      "t_address": {
        "encoding": "inplace",
        "label": "address",
        "numberOfBytes": "20"
      },
      "t_bool": {
        "encoding": "inplace",
        "label": "bool",
        "numberOfBytes": "1"
      },
      "t_bytes32": {
        "encoding": "inplace",
        "label": "bytes32",
        "numberOfBytes": "32"
      },
      "t_bytes_storage": {
        "encoding": "bytes",
        "label": "bytes",
        "numberOfBytes": "32"
      },
      "t_contract(DeBridgeGateMock)3049": {
        "encoding": "inplace",
        "label": "contract DeBridgeGateMock",
        "numberOfBytes": "20"
      },
      "t_contract(IERC721)1311": {
        "encoding": "inplace",
        "label": "contract IERC721",
        "numberOfBytes": "20"
      },
      "t_mapping(t_address,t_bool)": {
        "encoding": "mapping",
        "key": "t_address",
        "label": "mapping(address => bool)",
        "numberOfBytes": "32",
        "value": "t_bool"
      },
      "t_mapping(t_bytes32,t_struct(RoleData)19_storage)": {
        "encoding": "mapping",
        "key": "t_bytes32",
        "label": "mapping(bytes32 => struct AccessControl.RoleData)",
        "numberOfBytes": "32",
        "value": "t_struct(RoleData)19_storage"
      },
      "t_struct(RoleData)19_storage": {
        "encoding": "inplace",
        "label": "struct AccessControl.RoleData",
        "members": [
          {
            "astId": 16,
            "contract": "contracts/L1Bridge.sol:L1Bridge",
            "label": "members",
            "offset": 0,
            "slot": "0",
            "type": "t_mapping(t_address,t_bool)"
          },
          {
            "astId": 18,
            "contract": "contracts/L1Bridge.sol:L1Bridge",
            "label": "adminRole",
            "offset": 0,
            "slot": "1",
            "type": "t_bytes32"
          }
        ],
        "numberOfBytes": "64"
      }
    }
  }
}