{
  "address": "0x55904F2C4B672103a4E04E6BFcb1c5DDC4f41D6F",
  "abi": [
    {
      "inputs": [],
      "stateMutability": "nonpayable",
      "type": "constructor"
    },
    {
      "anonymous": false,
      "inputs": [
        {
          "indexed": true,
          "internalType": "address",
          "name": "owner",
          "type": "address"
        },
        {
          "indexed": true,
          "internalType": "address",
          "name": "approved",
          "type": "address"
        },
        {
          "indexed": true,
          "internalType": "uint256",
          "name": "tokenId",
          "type": "uint256"
        }
      ],
      "name": "Approval",
      "type": "event"
    },
    {
      "anonymous": false,
      "inputs": [
        {
          "indexed": true,
          "internalType": "address",
          "name": "owner",
          "type": "address"
        },
        {
          "indexed": true,
          "internalType": "address",
          "name": "operator",
          "type": "address"
        },
        {
          "indexed": false,
          "internalType": "bool",
          "name": "approved",
          "type": "bool"
        }
      ],
      "name": "ApprovalForAll",
      "type": "event"
    },
    {
      "anonymous": false,
      "inputs": [
        {
          "indexed": true,
          "internalType": "bytes32",
          "name": "role",
          "type": "bytes32"
        },
        {
          "indexed": true,
          "internalType": "bytes32",
          "name": "previousAdminRole",
          "type": "bytes32"
        },
        {
          "indexed": true,
          "internalType": "bytes32",
          "name": "newAdminRole",
          "type": "bytes32"
        }
      ],
      "name": "RoleAdminChanged",
      "type": "event"
    },
    {
      "anonymous": false,
      "inputs": [
        {
          "indexed": true,
          "internalType": "bytes32",
          "name": "role",
          "type": "bytes32"
        },
        {
          "indexed": true,
          "internalType": "address",
          "name": "account",
          "type": "address"
        },
        {
          "indexed": true,
          "internalType": "address",
          "name": "sender",
          "type": "address"
        }
      ],
      "name": "RoleGranted",
      "type": "event"
    },
    {
      "anonymous": false,
      "inputs": [
        {
          "indexed": true,
          "internalType": "bytes32",
          "name": "role",
          "type": "bytes32"
        },
        {
          "indexed": true,
          "internalType": "address",
          "name": "account",
          "type": "address"
        },
        {
          "indexed": true,
          "internalType": "address",
          "name": "sender",
          "type": "address"
        }
      ],
      "name": "RoleRevoked",
      "type": "event"
    },
    {
      "anonymous": false,
      "inputs": [
        {
          "indexed": true,
          "internalType": "address",
          "name": "from",
          "type": "address"
        },
        {
          "indexed": true,
          "internalType": "address",
          "name": "to",
          "type": "address"
        },
        {
          "indexed": true,
          "internalType": "uint256",
          "name": "tokenId",
          "type": "uint256"
        }
      ],
      "name": "Transfer",
      "type": "event"
    },
    {
      "inputs": [],
      "name": "DEFAULT_ADMIN_ROLE",
      "outputs": [
        {
          "internalType": "bytes32",
          "name": "",
          "type": "bytes32"
        }
      ],
      "stateMutability": "view",
      "type": "function"
    },
    {
      "inputs": [],
      "name": "MINTER_ROLE",
      "outputs": [
        {
          "internalType": "bytes32",
          "name": "",
          "type": "bytes32"
        }
      ],
      "stateMutability": "view",
      "type": "function"
    },
    {
      "inputs": [
        {
          "internalType": "address",
          "name": "to",
          "type": "address"
        },
        {
          "internalType": "uint256",
          "name": "tokenId",
          "type": "uint256"
        }
      ],
      "name": "approve",
      "outputs": [],
      "stateMutability": "nonpayable",
      "type": "function"
    },
    {
      "inputs": [
        {
          "internalType": "address",
          "name": "owner",
          "type": "address"
        }
      ],
      "name": "balanceOf",
      "outputs": [
        {
          "internalType": "uint256",
          "name": "",
          "type": "uint256"
        }
      ],
      "stateMutability": "view",
      "type": "function"
    },
    {
      "inputs": [],
      "name": "defaultUri",
      "outputs": [
        {
          "internalType": "string",
          "name": "",
          "type": "string"
        }
      ],
      "stateMutability": "view",
      "type": "function"
    },
    {
      "inputs": [
        {
          "internalType": "uint256",
          "name": "tokenId",
          "type": "uint256"
        }
      ],
      "name": "getApproved",
      "outputs": [
        {
          "internalType": "address",
          "name": "",
          "type": "address"
        }
      ],
      "stateMutability": "view",
      "type": "function"
    },
    {
      "inputs": [
        {
          "internalType": "bytes32",
          "name": "role",
          "type": "bytes32"
        }
      ],
      "name": "getRoleAdmin",
      "outputs": [
        {
          "internalType": "bytes32",
          "name": "",
          "type": "bytes32"
        }
      ],
      "stateMutability": "view",
      "type": "function"
    },
    {
      "inputs": [
        {
          "internalType": "bytes32",
          "name": "role",
          "type": "bytes32"
        },
        {
          "internalType": "address",
          "name": "account",
          "type": "address"
        }
      ],
      "name": "grantRole",
      "outputs": [],
      "stateMutability": "nonpayable",
      "type": "function"
    },
    {
      "inputs": [
        {
          "internalType": "bytes32",
          "name": "role",
          "type": "bytes32"
        },
        {
          "internalType": "address",
          "name": "account",
          "type": "address"
        }
      ],
      "name": "hasRole",
      "outputs": [
        {
          "internalType": "bool",
          "name": "",
          "type": "bool"
        }
      ],
      "stateMutability": "view",
      "type": "function"
    },
    {
      "inputs": [
        {
          "internalType": "address",
          "name": "owner",
          "type": "address"
        },
        {
          "internalType": "address",
          "name": "operator",
          "type": "address"
        }
      ],
      "name": "isApprovedForAll",
      "outputs": [
        {
          "internalType": "bool",
          "name": "",
          "type": "bool"
        }
      ],
      "stateMutability": "view",
      "type": "function"
    },
    {
      "inputs": [
        {
          "internalType": "address",
          "name": "to",
          "type": "address"
        },
        {
          "internalType": "uint256",
          "name": "mintIndex",
          "type": "uint256"
        }
      ],
      "name": "mint",
      "outputs": [],
      "stateMutability": "nonpayable",
      "type": "function"
    },
    {
      "inputs": [],
      "name": "name",
      "outputs": [
        {
          "internalType": "string",
          "name": "",
          "type": "string"
        }
      ],
      "stateMutability": "view",
      "type": "function"
    },
    {
      "inputs": [
        {
          "internalType": "uint256",
          "name": "tokenId",
          "type": "uint256"
        }
      ],
      "name": "ownerOf",
      "outputs": [
        {
          "internalType": "address",
          "name": "",
          "type": "address"
        }
      ],
      "stateMutability": "view",
      "type": "function"
    },
    {
      "inputs": [
        {
          "internalType": "bytes32",
          "name": "role",
          "type": "bytes32"
        },
        {
          "internalType": "address",
          "name": "account",
          "type": "address"
        }
      ],
      "name": "renounceRole",
      "outputs": [],
      "stateMutability": "nonpayable",
      "type": "function"
    },
    {
      "inputs": [
        {
          "internalType": "bytes32",
          "name": "role",
          "type": "bytes32"
        },
        {
          "internalType": "address",
          "name": "account",
          "type": "address"
        }
      ],
      "name": "revokeRole",
      "outputs": [],
      "stateMutability": "nonpayable",
      "type": "function"
    },
    {
      "inputs": [
        {
          "internalType": "address",
          "name": "from",
          "type": "address"
        },
        {
          "internalType": "address",
          "name": "to",
          "type": "address"
        },
        {
          "internalType": "uint256",
          "name": "tokenId",
          "type": "uint256"
        }
      ],
      "name": "safeTransferFrom",
      "outputs": [],
      "stateMutability": "nonpayable",
      "type": "function"
    },
    {
      "inputs": [
        {
          "internalType": "address",
          "name": "from",
          "type": "address"
        },
        {
          "internalType": "address",
          "name": "to",
          "type": "address"
        },
        {
          "internalType": "uint256",
          "name": "tokenId",
          "type": "uint256"
        },
        {
          "internalType": "bytes",
          "name": "_data",
          "type": "bytes"
        }
      ],
      "name": "safeTransferFrom",
      "outputs": [],
      "stateMutability": "nonpayable",
      "type": "function"
    },
    {
      "inputs": [
        {
          "internalType": "address",
          "name": "operator",
          "type": "address"
        },
        {
          "internalType": "bool",
          "name": "approved",
          "type": "bool"
        }
      ],
      "name": "setApprovalForAll",
      "outputs": [],
      "stateMutability": "nonpayable",
      "type": "function"
    },
    {
      "inputs": [
        {
          "internalType": "string",
          "name": "uri",
          "type": "string"
        }
      ],
      "name": "setDefaultUri",
      "outputs": [],
      "stateMutability": "nonpayable",
      "type": "function"
    },
    {
      "inputs": [
        {
          "internalType": "bytes4",
          "name": "interfaceId",
          "type": "bytes4"
        }
      ],
      "name": "supportsInterface",
      "outputs": [
        {
          "internalType": "bool",
          "name": "",
          "type": "bool"
        }
      ],
      "stateMutability": "view",
      "type": "function"
    },
    {
      "inputs": [],
      "name": "symbol",
      "outputs": [
        {
          "internalType": "string",
          "name": "",
          "type": "string"
        }
      ],
      "stateMutability": "view",
      "type": "function"
    },
    {
      "inputs": [
        {
          "internalType": "uint256",
          "name": "index",
          "type": "uint256"
        }
      ],
      "name": "tokenByIndex",
      "outputs": [
        {
          "internalType": "uint256",
          "name": "",
          "type": "uint256"
        }
      ],
      "stateMutability": "view",
      "type": "function"
    },
    {
      "inputs": [
        {
          "internalType": "address",
          "name": "owner",
          "type": "address"
        },
        {
          "internalType": "uint256",
          "name": "index",
          "type": "uint256"
        }
      ],
      "name": "tokenOfOwnerByIndex",
      "outputs": [
        {
          "internalType": "uint256",
          "name": "",
          "type": "uint256"
        }
      ],
      "stateMutability": "view",
      "type": "function"
    },
    {
      "inputs": [
        {
          "internalType": "uint256",
          "name": "tokenId",
          "type": "uint256"
        }
      ],
      "name": "tokenURI",
      "outputs": [
        {
          "internalType": "string",
          "name": "",
          "type": "string"
        }
      ],
      "stateMutability": "view",
      "type": "function"
    },
    {
      "inputs": [],
      "name": "totalSupply",
      "outputs": [
        {
          "internalType": "uint256",
          "name": "",
          "type": "uint256"
        }
      ],
      "stateMutability": "view",
      "type": "function"
    },
    {
      "inputs": [
        {
          "internalType": "address",
          "name": "from",
          "type": "address"
        },
        {
          "internalType": "address",
          "name": "to",
          "type": "address"
        },
        {
          "internalType": "uint256",
          "name": "tokenId",
          "type": "uint256"
        }
      ],
      "name": "transferFrom",
      "outputs": [],
      "stateMutability": "nonpayable",
      "type": "function"
    }
  ],
  "transactionHash": "0x01f4fd8132d40d1f4070a8c995dd83a93819621eb8a3add2d2afa3849c0bbcdb",
  "args": [],
  "solcInputHash": "c50b17345da1bb9490a5bc493b7dfa11",
  "bytecode": "0x60806040523480156200001157600080fd5b5060408051808201825260078152664772697a7a6c7960c81b60208083019182528351808501909452600484526311d4969360e21b9084015281519192916200005d916000916200016b565b508051620000739060019060208401906200016b565b506200008591506000905033620000b7565b620000b17f9f2df0fed2c77648de5860a4cc508cd0818c85b8b8a1ab4ceeef8d981c8956a633620000b7565b6200024e565b620000c38282620000c7565b5050565b6000828152600a602090815260408083206001600160a01b038516845290915290205460ff16620000c3576000828152600a602090815260408083206001600160a01b03851684529091529020805460ff19166001179055620001273390565b6001600160a01b0316816001600160a01b0316837f2f8788117e7eff1d82e926ec794901d17c78024a50270940304540a733656f0d60405160405180910390a45050565b828054620001799062000211565b90600052602060002090601f0160209004810192826200019d5760008555620001e8565b82601f10620001b857805160ff1916838001178555620001e8565b82800160010185558215620001e8579182015b82811115620001e8578251825591602001919060010190620001cb565b50620001f6929150620001fa565b5090565b5b80821115620001f65760008155600101620001fb565b600181811c908216806200022657607f821691505b602082108114156200024857634e487b7160e01b600052602260045260246000fd5b50919050565b61207b806200025e6000396000f3fe608060405234801561001057600080fd5b506004361061018e5760003560e01c80634f6ccce7116100de578063a22cb46511610097578063d2d99fec11610071578063d2d99fec1461035f578063d539139314610367578063d547741f1461038e578063e985e9c5146103a157600080fd5b8063a22cb46514610326578063b88d4fde14610339578063c87b56dd1461034c57600080fd5b80634f6ccce7146102ca5780636352211e146102dd57806370a08231146102f057806391d148541461030357806395d89b4114610316578063a217fddf1461031e57600080fd5b8063248a9ca31161014b57806336568abe1161012557806336568abe1461027e57806340c10f191461029157806342842e0e146102a4578063466a18de146102b757600080fd5b8063248a9ca3146102355780632f2ff15d146102585780632f745c591461026b57600080fd5b806301ffc9a71461019357806306fdde03146101bb578063081812fc146101d0578063095ea7b3146101fb57806318160ddd1461021057806323b872dd14610222575b600080fd5b6101a66101a1366004611990565b6103dd565b60405190151581526020015b60405180910390f35b6101c36103ee565b6040516101b29190611a05565b6101e36101de366004611a18565b610480565b6040516001600160a01b0390911681526020016101b2565b61020e610209366004611a4d565b61051a565b005b6008545b6040519081526020016101b2565b61020e610230366004611a77565b610630565b610214610243366004611a18565b6000908152600a602052604090206001015490565b61020e610266366004611ab3565b610661565b610214610279366004611a4d565b610687565b61020e61028c366004611ab3565b61071d565b61020e61029f366004611a4d565b61079b565b61020e6102b2366004611a77565b6107d0565b61020e6102c5366004611b6b565b6107eb565b6102146102d8366004611a18565b61080a565b6101e36102eb366004611a18565b61089d565b6102146102fe366004611bb4565b610914565b6101a6610311366004611ab3565b61099b565b6101c36109c6565b610214600081565b61020e610334366004611bcf565b6109d5565b61020e610347366004611c0b565b610a9a565b6101c361035a366004611a18565b610ad2565b6101c3610b6b565b6102147f9f2df0fed2c77648de5860a4cc508cd0818c85b8b8a1ab4ceeef8d981c8956a681565b61020e61039c366004611ab3565b610bf9565b6101a66103af366004611c87565b6001600160a01b03918216600090815260056020908152604080832093909416825291909152205460ff1690565b60006103e882610c1f565b92915050565b6060600080546103fd90611cb1565b80601f016020809104026020016040519081016040528092919081815260200182805461042990611cb1565b80156104765780601f1061044b57610100808354040283529160200191610476565b820191906000526020600020905b81548152906001019060200180831161045957829003601f168201915b5050505050905090565b6000818152600260205260408120546001600160a01b03166104fe5760405162461bcd60e51b815260206004820152602c60248201527f4552433732313a20617070726f76656420717565727920666f72206e6f6e657860448201526b34b9ba32b73a103a37b5b2b760a11b60648201526084015b60405180910390fd5b506000908152600460205260409020546001600160a01b031690565b60006105258261089d565b9050806001600160a01b0316836001600160a01b031614156105935760405162461bcd60e51b815260206004820152602160248201527f4552433732313a20617070726f76616c20746f2063757272656e74206f776e656044820152603960f91b60648201526084016104f5565b336001600160a01b03821614806105af57506105af81336103af565b6106215760405162461bcd60e51b815260206004820152603860248201527f4552433732313a20617070726f76652063616c6c6572206973206e6f74206f7760448201527f6e6572206e6f7220617070726f76656420666f7220616c6c000000000000000060648201526084016104f5565b61062b8383610c44565b505050565b61063a3382610cb2565b6106565760405162461bcd60e51b81526004016104f590611cec565b61062b838383610da9565b6000828152600a602052604090206001015461067d8133610f54565b61062b8383610fb8565b600061069283610914565b82106106f45760405162461bcd60e51b815260206004820152602b60248201527f455243373231456e756d657261626c653a206f776e657220696e646578206f7560448201526a74206f6620626f756e647360a81b60648201526084016104f5565b506001600160a01b03919091166000908152600660209081526040808320938352929052205490565b6001600160a01b038116331461078d5760405162461bcd60e51b815260206004820152602f60248201527f416363657373436f6e74726f6c3a2063616e206f6e6c792072656e6f756e636560448201526e103937b632b9903337b91039b2b63360891b60648201526084016104f5565b610797828261103e565b5050565b7f9f2df0fed2c77648de5860a4cc508cd0818c85b8b8a1ab4ceeef8d981c8956a66107c68133610f54565b61062b83836110a5565b61062b83838360405180602001604052806000815250610a9a565b60006107f78133610f54565b815161062b90600b9060208501906118de565b600061081560085490565b82106108785760405162461bcd60e51b815260206004820152602c60248201527f455243373231456e756d657261626c653a20676c6f62616c20696e646578206f60448201526b7574206f6620626f756e647360a01b60648201526084016104f5565b6008828154811061088b5761088b611d3d565b90600052602060002001549050919050565b6000818152600260205260408120546001600160a01b0316806103e85760405162461bcd60e51b815260206004820152602960248201527f4552433732313a206f776e657220717565727920666f72206e6f6e657869737460448201526832b73a103a37b5b2b760b91b60648201526084016104f5565b60006001600160a01b03821661097f5760405162461bcd60e51b815260206004820152602a60248201527f4552433732313a2062616c616e636520717565727920666f7220746865207a65604482015269726f206164647265737360b01b60648201526084016104f5565b506001600160a01b031660009081526003602052604090205490565b6000918252600a602090815260408084206001600160a01b0393909316845291905290205460ff1690565b6060600180546103fd90611cb1565b6001600160a01b038216331415610a2e5760405162461bcd60e51b815260206004820152601960248201527f4552433732313a20617070726f766520746f2063616c6c65720000000000000060448201526064016104f5565b3360008181526005602090815260408083206001600160a01b03871680855290835292819020805460ff191686151590811790915590519081529192917f17307eab39ab6107e8899845ad3d59bd9653f200f220920489ca2b5937696c31910160405180910390a35050565b610aa43383610cb2565b610ac05760405162461bcd60e51b81526004016104f590611cec565b610acc848484846110bf565b50505050565b6000818152600260205260409020546060906001600160a01b0316610b395760405162461bcd60e51b815260206004820152601f60248201527f55524920717565727920666f72206e6f6e6578697374656e7420746f6b656e0060448201526064016104f5565b600b610b44836110f2565b604051602001610b55929190611d6f565b6040516020818303038152906040529050919050565b600b8054610b7890611cb1565b80601f0160208091040260200160405190810160405280929190818152602001828054610ba490611cb1565b8015610bf15780601f10610bc657610100808354040283529160200191610bf1565b820191906000526020600020905b815481529060010190602001808311610bd457829003601f168201915b505050505081565b6000828152600a6020526040902060010154610c158133610f54565b61062b838361103e565b60006001600160e01b03198216637965db0b60e01b14806103e857506103e8826111f0565b600081815260046020526040902080546001600160a01b0319166001600160a01b0384169081179091558190610c798261089d565b6001600160a01b03167f8c5be1e5ebec7d5bd14f71427d1e84f3dd0314c0f7b2291e5b200ac8c7c3b92560405160405180910390a45050565b6000818152600260205260408120546001600160a01b0316610d2b5760405162461bcd60e51b815260206004820152602c60248201527f4552433732313a206f70657261746f7220717565727920666f72206e6f6e657860448201526b34b9ba32b73a103a37b5b2b760a11b60648201526084016104f5565b6000610d368361089d565b9050806001600160a01b0316846001600160a01b03161480610d715750836001600160a01b0316610d6684610480565b6001600160a01b0316145b80610da157506001600160a01b0380821660009081526005602090815260408083209388168352929052205460ff165b949350505050565b826001600160a01b0316610dbc8261089d565b6001600160a01b031614610e245760405162461bcd60e51b815260206004820152602960248201527f4552433732313a207472616e73666572206f6620746f6b656e2074686174206960448201526839903737ba1037bbb760b91b60648201526084016104f5565b6001600160a01b038216610e865760405162461bcd60e51b8152602060048201526024808201527f4552433732313a207472616e7366657220746f20746865207a65726f206164646044820152637265737360e01b60648201526084016104f5565b610e91838383611215565b610e9c600082610c44565b6001600160a01b0383166000908152600360205260408120805460019290610ec5908490611e50565b90915550506001600160a01b0382166000908152600360205260408120805460019290610ef3908490611e67565b909155505060008181526002602052604080822080546001600160a01b0319166001600160a01b0386811691821790925591518493918716917fddf252ad1be2c89b69c2b068fc378daa952ba7f163c4a11628f55a4df523b3ef91a4505050565b610f5e828261099b565b61079757610f76816001600160a01b031660146112cd565b610f818360206112cd565b604051602001610f92929190611e7f565b60408051601f198184030181529082905262461bcd60e51b82526104f591600401611a05565b610fc2828261099b565b610797576000828152600a602090815260408083206001600160a01b03851684529091529020805460ff19166001179055610ffa3390565b6001600160a01b0316816001600160a01b0316837f2f8788117e7eff1d82e926ec794901d17c78024a50270940304540a733656f0d60405160405180910390a45050565b611048828261099b565b15610797576000828152600a602090815260408083206001600160a01b0385168085529252808320805460ff1916905551339285917ff6391f5c32d9c69d2a47ea670b442974b53935d1edc7fd64eb21e047a839171b9190a45050565b610797828260405180602001604052806000815250611470565b6110ca848484610da9565b6110d6848484846114a3565b610acc5760405162461bcd60e51b81526004016104f590611ef4565b6060816111165750506040805180820190915260018152600360fc1b602082015290565b8160005b8115611140578061112a81611f46565b91506111399050600a83611f77565b915061111a565b60008167ffffffffffffffff81111561115b5761115b611adf565b6040519080825280601f01601f191660200182016040528015611185576020820181803683370190505b5090505b8415610da15761119a600183611e50565b91506111a7600a86611f8b565b6111b2906030611e67565b60f81b8183815181106111c7576111c7611d3d565b60200101906001600160f81b031916908160001a9053506111e9600a86611f77565b9450611189565b60006001600160e01b0319821663780e9d6360e01b14806103e857506103e8826115b0565b6001600160a01b0383166112705761126b81600880546000838152600960205260408120829055600182018355919091527ff3f7a9fe364faab93b216da50a3214154f22a0a2b415b23a84c8169e8b636ee30155565b611293565b816001600160a01b0316836001600160a01b031614611293576112938382611600565b6001600160a01b0382166112aa5761062b8161169d565b826001600160a01b0316826001600160a01b03161461062b5761062b828261174c565b606060006112dc836002611f9f565b6112e7906002611e67565b67ffffffffffffffff8111156112ff576112ff611adf565b6040519080825280601f01601f191660200182016040528015611329576020820181803683370190505b509050600360fc1b8160008151811061134457611344611d3d565b60200101906001600160f81b031916908160001a905350600f60fb1b8160018151811061137357611373611d3d565b60200101906001600160f81b031916908160001a9053506000611397846002611f9f565b6113a2906001611e67565b90505b600181111561141a576f181899199a1a9b1b9c1cb0b131b232b360811b85600f16601081106113d6576113d6611d3d565b1a60f81b8282815181106113ec576113ec611d3d565b60200101906001600160f81b031916908160001a90535060049490941c9361141381611fbe565b90506113a5565b5083156114695760405162461bcd60e51b815260206004820181905260248201527f537472696e67733a20686578206c656e67746820696e73756666696369656e7460448201526064016104f5565b9392505050565b61147a8383611790565b61148760008484846114a3565b61062b5760405162461bcd60e51b81526004016104f590611ef4565b60006001600160a01b0384163b156115a557604051630a85bd0160e11b81526001600160a01b0385169063150b7a02906114e7903390899088908890600401611fd5565b602060405180830381600087803b15801561150157600080fd5b505af1925050508015611531575060408051601f3d908101601f1916820190925261152e91810190612012565b60015b61158b573d80801561155f576040519150601f19603f3d011682016040523d82523d6000602084013e611564565b606091505b5080516115835760405162461bcd60e51b81526004016104f590611ef4565b805181602001fd5b6001600160e01b031916630a85bd0160e11b149050610da1565b506001949350505050565b60006001600160e01b031982166380ac58cd60e01b14806115e157506001600160e01b03198216635b5e139f60e01b145b806103e857506301ffc9a760e01b6001600160e01b03198316146103e8565b6000600161160d84610914565b6116179190611e50565b60008381526007602052604090205490915080821461166a576001600160a01b03841660009081526006602090815260408083208584528252808320548484528184208190558352600790915290208190555b5060009182526007602090815260408084208490556001600160a01b039094168352600681528383209183525290812055565b6008546000906116af90600190611e50565b600083815260096020526040812054600880549394509092849081106116d7576116d7611d3d565b9060005260206000200154905080600883815481106116f8576116f8611d3d565b60009182526020808320909101929092558281526009909152604080822084905585825281205560088054806117305761173061202f565b6001900381819060005260206000200160009055905550505050565b600061175783610914565b6001600160a01b039093166000908152600660209081526040808320868452825280832085905593825260079052919091209190915550565b6001600160a01b0382166117e65760405162461bcd60e51b815260206004820181905260248201527f4552433732313a206d696e7420746f20746865207a65726f206164647265737360448201526064016104f5565b6000818152600260205260409020546001600160a01b03161561184b5760405162461bcd60e51b815260206004820152601c60248201527f4552433732313a20746f6b656e20616c7265616479206d696e7465640000000060448201526064016104f5565b61185760008383611215565b6001600160a01b0382166000908152600360205260408120805460019290611880908490611e67565b909155505060008181526002602052604080822080546001600160a01b0319166001600160a01b03861690811790915590518392907fddf252ad1be2c89b69c2b068fc378daa952ba7f163c4a11628f55a4df523b3ef908290a45050565b8280546118ea90611cb1565b90600052602060002090601f01602090048101928261190c5760008555611952565b82601f1061192557805160ff1916838001178555611952565b82800160010185558215611952579182015b82811115611952578251825591602001919060010190611937565b5061195e929150611962565b5090565b5b8082111561195e5760008155600101611963565b6001600160e01b03198116811461198d57600080fd5b50565b6000602082840312156119a257600080fd5b813561146981611977565b60005b838110156119c85781810151838201526020016119b0565b83811115610acc5750506000910152565b600081518084526119f18160208601602086016119ad565b601f01601f19169290920160200192915050565b60208152600061146960208301846119d9565b600060208284031215611a2a57600080fd5b5035919050565b80356001600160a01b0381168114611a4857600080fd5b919050565b60008060408385031215611a6057600080fd5b611a6983611a31565b946020939093013593505050565b600080600060608486031215611a8c57600080fd5b611a9584611a31565b9250611aa360208501611a31565b9150604084013590509250925092565b60008060408385031215611ac657600080fd5b82359150611ad660208401611a31565b90509250929050565b634e487b7160e01b600052604160045260246000fd5b600067ffffffffffffffff80841115611b1057611b10611adf565b604051601f8501601f19908116603f01168101908282118183101715611b3857611b38611adf565b81604052809350858152868686011115611b5157600080fd5b858560208301376000602087830101525050509392505050565b600060208284031215611b7d57600080fd5b813567ffffffffffffffff811115611b9457600080fd5b8201601f81018413611ba557600080fd5b610da184823560208401611af5565b600060208284031215611bc657600080fd5b61146982611a31565b60008060408385031215611be257600080fd5b611beb83611a31565b915060208301358015158114611c0057600080fd5b809150509250929050565b60008060008060808587031215611c2157600080fd5b611c2a85611a31565b9350611c3860208601611a31565b925060408501359150606085013567ffffffffffffffff811115611c5b57600080fd5b8501601f81018713611c6c57600080fd5b611c7b87823560208401611af5565b91505092959194509250565b60008060408385031215611c9a57600080fd5b611ca383611a31565b9150611ad660208401611a31565b600181811c90821680611cc557607f821691505b60208210811415611ce657634e487b7160e01b600052602260045260246000fd5b50919050565b60208082526031908201527f4552433732313a207472616e736665722063616c6c6572206973206e6f74206f6040820152701ddb995c881b9bdc88185c1c1c9bdd9959607a1b606082015260800190565b634e487b7160e01b600052603260045260246000fd5b60008151611d658185602086016119ad565b9290920192915050565b600080845481600182811c915080831680611d8b57607f831692505b6020808410821415611dab57634e487b7160e01b86526022600452602486fd5b818015611dbf5760018114611dd057611dfd565b60ff19861689528489019650611dfd565b60008b81526020902060005b86811015611df55781548b820152908501908301611ddc565b505084890196505b505050505050611e31611e20611e1a83602f60f81b815260010190565b86611d53565b64173539b7b760d91b815260050190565b95945050505050565b634e487b7160e01b600052601160045260246000fd5b600082821015611e6257611e62611e3a565b500390565b60008219821115611e7a57611e7a611e3a565b500190565b7f416363657373436f6e74726f6c3a206163636f756e7420000000000000000000815260008351611eb78160178501602088016119ad565b7001034b99036b4b9b9b4b733903937b6329607d1b6017918401918201528351611ee88160288401602088016119ad565b01602801949350505050565b60208082526032908201527f4552433732313a207472616e7366657220746f206e6f6e20455243373231526560408201527131b2b4bb32b91034b6b83632b6b2b73a32b960711b606082015260800190565b6000600019821415611f5a57611f5a611e3a565b5060010190565b634e487b7160e01b600052601260045260246000fd5b600082611f8657611f86611f61565b500490565b600082611f9a57611f9a611f61565b500690565b6000816000190483118215151615611fb957611fb9611e3a565b500290565b600081611fcd57611fcd611e3a565b506000190190565b6001600160a01b0385811682528416602082015260408101839052608060608201819052600090612008908301846119d9565b9695505050505050565b60006020828403121561202457600080fd5b815161146981611977565b634e487b7160e01b600052603160045260246000fdfea2646970667358221220b83751d7ad5d7c24d4fe4e939694fb0c1f6c161973081ad28fc4b312d3f102dd64736f6c63430008090033",
  "devdoc": {
    "author": "OnBridge IO team*",
    "kind": "dev",
    "methods": {
      "approve(address,uint256)": {
        "details": "See {IERC721-approve}."
      },
      "balanceOf(address)": {
        "details": "See {IERC721-balanceOf}."
      },
      "getApproved(uint256)": {
        "details": "See {IERC721-getApproved}."
      },
      "getRoleAdmin(bytes32)": {
        "details": "Returns the admin role that controls `role`. See {grantRole} and {revokeRole}. To change a role's admin, use {_setRoleAdmin}."
      },
      "grantRole(bytes32,address)": {
        "details": "Grants `role` to `account`. If `account` had not been already granted `role`, emits a {RoleGranted} event. Requirements: - the caller must have ``role``'s admin role."
      },
      "hasRole(bytes32,address)": {
        "details": "Returns `true` if `account` has been granted `role`."
      },
      "isApprovedForAll(address,address)": {
        "details": "See {IERC721-isApprovedForAll}."
      },
      "mint(address,uint256)": {
        "details": "Mints a specific token (with known id) to the given address",
        "params": {
          "mintIndex": "the tokenId to mint",
          "to": "the receiver"
        }
      },
      "name()": {
        "details": "See {IERC721Metadata-name}."
      },
      "ownerOf(uint256)": {
        "details": "See {IERC721-ownerOf}."
      },
      "renounceRole(bytes32,address)": {
        "details": "Revokes `role` from the calling account. Roles are often managed via {grantRole} and {revokeRole}: this function's purpose is to provide a mechanism for accounts to lose their privileges if they are compromised (such as when a trusted device is misplaced). If the calling account had been granted `role`, emits a {RoleRevoked} event. Requirements: - the caller must be `account`."
      },
      "revokeRole(bytes32,address)": {
        "details": "Revokes `role` from `account`. If `account` had been granted `role`, emits a {RoleRevoked} event. Requirements: - the caller must have ``role``'s admin role."
      },
      "safeTransferFrom(address,address,uint256)": {
        "details": "See {IERC721-safeTransferFrom}."
      },
      "safeTransferFrom(address,address,uint256,bytes)": {
        "details": "See {IERC721-safeTransferFrom}."
      },
      "setApprovalForAll(address,bool)": {
        "details": "See {IERC721-setApprovalForAll}."
      },
      "setDefaultUri(string)": {
        "details": "Set defaultUri"
      },
      "supportsInterface(bytes4)": {
        "details": "See {IERC165-supportsInterface}."
      },
      "symbol()": {
        "details": "See {IERC721Metadata-symbol}."
      },
      "tokenByIndex(uint256)": {
        "details": "See {IERC721Enumerable-tokenByIndex}."
      },
      "tokenOfOwnerByIndex(address,uint256)": {
        "details": "See {IERC721Enumerable-tokenOfOwnerByIndex}."
      },
      "tokenURI(uint256)": {
        "details": "IPFS address that stores JSON with token attributes",
        "params": {
          "tokenId": "id of the token"
        },
        "returns": {
          "_0": "string with ipfs address to json with token attribute or URI for default token if token doesn`t exist"
        }
      },
      "totalSupply()": {
        "details": "See {IERC721Enumerable-totalSupply}."
      },
      "transferFrom(address,address,uint256)": {
        "details": "See {IERC721-transferFrom}."
      }
    },
    "title": "L2Token",
    "version": 1
  },
  "userdoc": {
    "kind": "user",
    "methods": {},
    "version": 1
  },
  "storageLayout": {
    "storage": [
      {
        "astId": 405,
        "contract": "contracts/L1Token.sol:L1Token",
        "label": "_name",
        "offset": 0,
        "slot": "0",
        "type": "t_string_storage"
      },
      {
        "astId": 407,
        "contract": "contracts/L1Token.sol:L1Token",
        "label": "_symbol",
        "offset": 0,
        "slot": "1",
        "type": "t_string_storage"
      },
      {
        "astId": 411,
        "contract": "contracts/L1Token.sol:L1Token",
        "label": "_owners",
        "offset": 0,
        "slot": "2",
        "type": "t_mapping(t_uint256,t_address)"
      },
      {
        "astId": 415,
        "contract": "contracts/L1Token.sol:L1Token",
        "label": "_balances",
        "offset": 0,
        "slot": "3",
        "type": "t_mapping(t_address,t_uint256)"
      },
      {
        "astId": 419,
        "contract": "contracts/L1Token.sol:L1Token",
        "label": "_tokenApprovals",
        "offset": 0,
        "slot": "4",
        "type": "t_mapping(t_uint256,t_address)"
      },
      {
        "astId": 425,
        "contract": "contracts/L1Token.sol:L1Token",
        "label": "_operatorApprovals",
        "offset": 0,
        "slot": "5",
        "type": "t_mapping(t_address,t_mapping(t_address,t_bool))"
      },
      {
        "astId": 1344,
        "contract": "contracts/L1Token.sol:L1Token",
        "label": "_ownedTokens",
        "offset": 0,
        "slot": "6",
        "type": "t_mapping(t_address,t_mapping(t_uint256,t_uint256))"
      },
      {
        "astId": 1348,
        "contract": "contracts/L1Token.sol:L1Token",
        "label": "_ownedTokensIndex",
        "offset": 0,
        "slot": "7",
        "type": "t_mapping(t_uint256,t_uint256)"
      },
      {
        "astId": 1351,
        "contract": "contracts/L1Token.sol:L1Token",
        "label": "_allTokens",
        "offset": 0,
        "slot": "8",
        "type": "t_array(t_uint256)dyn_storage"
      },
      {
        "astId": 1355,
        "contract": "contracts/L1Token.sol:L1Token",
        "label": "_allTokensIndex",
        "offset": 0,
        "slot": "9",
        "type": "t_mapping(t_uint256,t_uint256)"
      },
      {
        "astId": 24,
        "contract": "contracts/L1Token.sol:L1Token",
        "label": "_roles",
        "offset": 0,
        "slot": "10",
        "type": "t_mapping(t_bytes32,t_struct(RoleData)19_storage)"
      },
      {
        "astId": 2519,
        "contract": "contracts/L1Token.sol:L1Token",
        "label": "defaultUri",
        "offset": 0,
        "slot": "11",
        "type": "t_string_storage"
      }
    ],
    "types": {
      "t_address": {
        "encoding": "inplace",
        "label": "address",
        "numberOfBytes": "20"
      },
      "t_array(t_uint256)dyn_storage": {
        "base": "t_uint256",
        "encoding": "dynamic_array",
        "label": "uint256[]",
        "numberOfBytes": "32"
      },
      "t_bool": {
        "encoding": "inplace",
        "label": "bool",
        "numberOfBytes": "1"
      },
      "t_bytes32": {
        "encoding": "inplace",
        "label": "bytes32",
        "numberOfBytes": "32"
      },
      "t_mapping(t_address,t_bool)": {
        "encoding": "mapping",
        "key": "t_address",
        "label": "mapping(address => bool)",
        "numberOfBytes": "32",
        "value": "t_bool"
      },
      "t_mapping(t_address,t_mapping(t_address,t_bool))": {
        "encoding": "mapping",
        "key": "t_address",
        "label": "mapping(address => mapping(address => bool))",
        "numberOfBytes": "32",
        "value": "t_mapping(t_address,t_bool)"
      },
      "t_mapping(t_address,t_mapping(t_uint256,t_uint256))": {
        "encoding": "mapping",
        "key": "t_address",
        "label": "mapping(address => mapping(uint256 => uint256))",
        "numberOfBytes": "32",
        "value": "t_mapping(t_uint256,t_uint256)"
      },
      "t_mapping(t_address,t_uint256)": {
        "encoding": "mapping",
        "key": "t_address",
        "label": "mapping(address => uint256)",
        "numberOfBytes": "32",
        "value": "t_uint256"
      },
      "t_mapping(t_bytes32,t_struct(RoleData)19_storage)": {
        "encoding": "mapping",
        "key": "t_bytes32",
        "label": "mapping(bytes32 => struct AccessControl.RoleData)",
        "numberOfBytes": "32",
        "value": "t_struct(RoleData)19_storage"
      },
      "t_mapping(t_uint256,t_address)": {
        "encoding": "mapping",
        "key": "t_uint256",
        "label": "mapping(uint256 => address)",
        "numberOfBytes": "32",
        "value": "t_address"
      },
      "t_mapping(t_uint256,t_uint256)": {
        "encoding": "mapping",
        "key": "t_uint256",
        "label": "mapping(uint256 => uint256)",
        "numberOfBytes": "32",
        "value": "t_uint256"
      },
      "t_string_storage": {
        "encoding": "bytes",
        "label": "string",
        "numberOfBytes": "32"
      },
      "t_struct(RoleData)19_storage": {
        "encoding": "inplace",
        "label": "struct AccessControl.RoleData",
        "members": [
          {
            "astId": 16,
            "contract": "contracts/L1Token.sol:L1Token",
            "label": "members",
            "offset": 0,
            "slot": "0",
            "type": "t_mapping(t_address,t_bool)"
          },
          {
            "astId": 18,
            "contract": "contracts/L1Token.sol:L1Token",
            "label": "adminRole",
            "offset": 0,
            "slot": "1",
            "type": "t_bytes32"
          }
        ],
        "numberOfBytes": "64"
      },
      "t_uint256": {
        "encoding": "inplace",
        "label": "uint256",
        "numberOfBytes": "32"
      }
    }
  }
}